{
  "contractName": "CarParkingSystem",
  "abi": [
    {
      "inputs": [
        {
          "internalType": "address",
          "name": "manager",
          "type": "address"
        }
      ],
      "stateMutability": "nonpayable",
      "type": "constructor"
    },
    {
      "anonymous": false,
      "inputs": [
        {
          "indexed": false,
          "internalType": "string",
          "name": "licensePlate",
          "type": "string"
        },
        {
          "indexed": false,
          "internalType": "uint256",
          "name": "time",
          "type": "uint256"
        }
      ],
      "name": "ParkDetails",
      "type": "event"
    },
    {
      "inputs": [
        {
          "internalType": "string",
          "name": "label",
          "type": "string"
        },
        {
          "internalType": "uint256",
          "name": "weiPerSecond",
          "type": "uint256"
        }
      ],
      "name": "setZones",
      "outputs": [],
      "stateMutability": "nonpayable",
      "type": "function"
    },
    {
      "inputs": [
        {
          "internalType": "uint256",
          "name": "zoneIndex",
          "type": "uint256"
        },
        {
          "internalType": "string",
          "name": "_licensePlate",
          "type": "string"
        }
      ],
      "name": "checkIn",
      "outputs": [],
      "stateMutability": "nonpayable",
      "type": "function"
    },
    {
      "inputs": [
        {
          "internalType": "uint256",
          "name": "ticketNr",
          "type": "uint256"
        }
      ],
      "name": "checkOut",
      "outputs": [],
      "stateMutability": "payable",
      "type": "function"
    },
    {
      "inputs": [],
      "name": "getManager",
      "outputs": [
        {
          "internalType": "address",
          "name": "",
          "type": "address"
        }
      ],
      "stateMutability": "view",
      "type": "function"
    },
    {
      "inputs": [
        {
          "internalType": "address",
          "name": "newManager",
          "type": "address"
        }
      ],
      "name": "setManager",
      "outputs": [],
      "stateMutability": "nonpayable",
      "type": "function"
    },
    {
      "inputs": [],
      "name": "getZonesCount",
      "outputs": [
        {
          "internalType": "uint256",
          "name": "",
          "type": "uint256"
        }
      ],
      "stateMutability": "view",
      "type": "function"
    },
    {
      "inputs": [],
      "name": "getTicketsCount",
      "outputs": [
        {
          "internalType": "uint256",
          "name": "",
          "type": "uint256"
        }
      ],
      "stateMutability": "view",
      "type": "function"
    },
    {
      "inputs": [
        {
          "internalType": "uint256",
          "name": "index",
          "type": "uint256"
        }
      ],
      "name": "checkZone",
      "outputs": [
        {
          "components": [
            {
              "internalType": "string",
              "name": "label",
              "type": "string"
            },
            {
              "internalType": "uint256",
              "name": "weiPerSecond",
              "type": "uint256"
            }
          ],
          "internalType": "struct CarParkingSystem.Zone",
          "name": "",
          "type": "tuple"
        }
      ],
      "stateMutability": "view",
      "type": "function"
    },
    {
      "inputs": [
        {
          "internalType": "uint256",
          "name": "index",
          "type": "uint256"
        }
      ],
      "name": "checkTicket",
      "outputs": [
        {
          "components": [
            {
              "components": [
                {
                  "internalType": "string",
                  "name": "label",
                  "type": "string"
                },
                {
                  "internalType": "uint256",
                  "name": "weiPerSecond",
                  "type": "uint256"
                }
              ],
              "internalType": "struct CarParkingSystem.Zone",
              "name": "zone",
              "type": "tuple"
            },
            {
              "internalType": "enum CarParkingSystem.Payment",
              "name": "payment",
              "type": "uint8"
            },
            {
              "internalType": "string",
              "name": "licensePlate",
              "type": "string"
            },
            {
              "internalType": "uint256",
              "name": "checkIn",
              "type": "uint256"
            },
            {
              "internalType": "uint256",
              "name": "checkOut",
              "type": "uint256"
            }
          ],
          "internalType": "struct CarParkingSystem.Ticket",
          "name": "",
          "type": "tuple"
        }
      ],
      "stateMutability": "view",
      "type": "function"
    }
  ],
  "bytecode": "0x60806040523480156200001157600080fd5b506040516200168e3803806200168e8339818101604052810190620000379190620000e8565b806000806101000a81548173ffffffffffffffffffffffffffffffffffffffff021916908373ffffffffffffffffffffffffffffffffffffffff160217905550506200011a565b600080fd5b600073ffffffffffffffffffffffffffffffffffffffff82169050919050565b6000620000b08262000083565b9050919050565b620000c281620000a3565b8114620000ce57600080fd5b50565b600081519050620000e281620000b7565b92915050565b6000602082840312156200010157620001006200007e565b5b60006200011184828501620000d1565b91505092915050565b611564806200012a6000396000f3fe6080604052600436106100865760003560e01c806367deced21161005957806367deced214610138578063ba26ad7214610161578063d0ebdbe71461019e578063d5009584146101c7578063e1044a3d146101f257610086565b8063080b2a861461008b5780631bd2eeee146100b657806346d260a1146100d25780636725b9001461010f575b600080fd5b34801561009757600080fd5b506100a061021d565b6040516100ad9190610dcb565b60405180910390f35b6100d060048036038101906100cb9190610e26565b610280565b005b3480156100de57600080fd5b506100f960048036038101906100f49190610e26565b610528565b604051610106919061102c565b60405180910390f35b34801561011b57600080fd5b5061013660048036038101906101319190611183565b61073e565b005b34801561014457600080fd5b5061015f600480360381019061015a91906111df565b61080c565b005b34801561016d57600080fd5b5061018860048036038101906101839190610e26565b610a0e565b6040516101959190611278565b60405180910390f35b3480156101aa57600080fd5b506101c560048036038101906101c091906112f8565b610b2f565b005b3480156101d357600080fd5b506101dc610bca565b6040516101e99190611334565b60405180910390f35b3480156101fe57600080fd5b50610207610c4b565b6040516102149190610dcb565b60405180910390f35b60008060009054906101000a900473ffffffffffffffffffffffffffffffffffffffff1673ffffffffffffffffffffffffffffffffffffffff163373ffffffffffffffffffffffffffffffffffffffff161461027857600080fd5b600254905090565b6000600460008381526020019081526020016000206040518060a0016040529081600082016040518060400160405290816000820180546102c09061137e565b80601f01602080910402602001604051908101604052809291908181526020018280546102ec9061137e565b80156103395780601f1061030e57610100808354040283529160200191610339565b820191906000526020600020905b81548152906001019060200180831161031c57829003601f168201915b5050505050815260200160018201548152505081526020016002820160009054906101000a900460ff16600181111561037557610374610f38565b5b600181111561038757610386610f38565b5b815260200160038201805461039b9061137e565b80601f01602080910402602001604051908101604052809291908181526020018280546103c79061137e565b80156104145780601f106103e957610100808354040283529160200191610414565b820191906000526020600020905b8154815290600101906020018083116103f757829003601f168201915b505050505081526020016004820154815260200160058201548152505090506000600181111561044757610446610f38565b5b8160200151600181111561045e5761045d610f38565b5b1461046857600080fd5b6000429050600082606001518261047f91906113de565b90506000836000015160200151826104979190611412565b90508034146104a557600080fd5b828460800181815250506001846020019060018111156104c8576104c7610f38565b5b908160018111156104dc576104db610f38565b5b815250507f2c2156458c8050652604078fdca98efa11f9e3f3a669814a0809ad42d76b7735846040015185608001516040516105199291906114b6565b60405180910390a15050505050565b610530610cae565b60008054906101000a900473ffffffffffffffffffffffffffffffffffffffff1673ffffffffffffffffffffffffffffffffffffffff163373ffffffffffffffffffffffffffffffffffffffff161461058857600080fd5b600460008381526020019081526020016000206040518060a0016040529081600082016040518060400160405290816000820180546105c69061137e565b80601f01602080910402602001604051908101604052809291908181526020018280546105f29061137e565b801561063f5780601f106106145761010080835404028352916020019161063f565b820191906000526020600020905b81548152906001019060200180831161062257829003601f168201915b5050505050815260200160018201548152505081526020016002820160009054906101000a900460ff16600181111561067b5761067a610f38565b5b600181111561068d5761068c610f38565b5b81526020016003820180546106a19061137e565b80601f01602080910402602001604051908101604052809291908181526020018280546106cd9061137e565b801561071a5780601f106106ef5761010080835404028352916020019161071a565b820191906000526020600020905b8154815290600101906020018083116106fd57829003601f168201915b50505050508152602001600482015481526020016005820154815250509050919050565b60008054906101000a900473ffffffffffffffffffffffffffffffffffffffff1673ffffffffffffffffffffffffffffffffffffffff163373ffffffffffffffffffffffffffffffffffffffff161461079657600080fd5b60006040518060400160405280848152602001838152509050600160008154809291906107c2906114e6565b91905055508060036000600154815260200190815260200160002060008201518160000190805190602001906107f9929190610cf5565b5060208201518160010155905050505050565b60006040518060a00160405280600360008681526020019081526020016000206040518060400160405290816000820180546108479061137e565b80601f01602080910402602001604051908101604052809291908181526020018280546108739061137e565b80156108c05780601f10610895576101008083540402835291602001916108c0565b820191906000526020600020905b8154815290600101906020018083116108a357829003601f168201915b505050505081526020016001820154815250508152602001600060018111156108ec576108eb610f38565b5b81526020018381526020014281526020016000815250905060026000815480929190610917906114e6565b9190505550806004600060025481526020019081526020016000206000820151816000016000820151816000019080519060200190610957929190610cf5565b5060208201518160010155505060208201518160020160006101000a81548160ff0219169083600181111561098f5761098e610f38565b5b021790555060408201518160030190805190602001906109b0929190610cf5565b5060608201518160040155608082015181600501559050507f2c2156458c8050652604078fdca98efa11f9e3f3a669814a0809ad42d76b773581604001518260600151604051610a019291906114b6565b60405180910390a1505050565b610a16610d7b565b60008054906101000a900473ffffffffffffffffffffffffffffffffffffffff1673ffffffffffffffffffffffffffffffffffffffff163373ffffffffffffffffffffffffffffffffffffffff1614610a6e57600080fd5b60036000838152602001908152602001600020604051806040016040529081600082018054610a9c9061137e565b80601f0160208091040260200160405190810160405280929190818152602001828054610ac89061137e565b8015610b155780601f10610aea57610100808354040283529160200191610b15565b820191906000526020600020905b815481529060010190602001808311610af857829003601f168201915b505050505081526020016001820154815250509050919050565b60008054906101000a900473ffffffffffffffffffffffffffffffffffffffff1673ffffffffffffffffffffffffffffffffffffffff163373ffffffffffffffffffffffffffffffffffffffff1614610b8757600080fd5b806000806101000a81548173ffffffffffffffffffffffffffffffffffffffff021916908373ffffffffffffffffffffffffffffffffffffffff16021790555050565b60008060009054906101000a900473ffffffffffffffffffffffffffffffffffffffff1673ffffffffffffffffffffffffffffffffffffffff163373ffffffffffffffffffffffffffffffffffffffff1614610c2557600080fd5b60008054906101000a900473ffffffffffffffffffffffffffffffffffffffff16905090565b60008060009054906101000a900473ffffffffffffffffffffffffffffffffffffffff1673ffffffffffffffffffffffffffffffffffffffff163373ffffffffffffffffffffffffffffffffffffffff1614610ca657600080fd5b600154905090565b6040518060a00160405280610cc1610d7b565b815260200160006001811115610cda57610cd9610f38565b5b81526020016060815260200160008152602001600081525090565b828054610d019061137e565b90600052602060002090601f016020900481019282610d235760008555610d6a565b82601f10610d3c57805160ff1916838001178555610d6a565b82800160010185558215610d6a579182015b82811115610d69578251825591602001919060010190610d4e565b5b509050610d779190610d95565b5090565b604051806040016040528060608152602001600081525090565b5b80821115610dae576000816000905550600101610d96565b5090565b6000819050919050565b610dc581610db2565b82525050565b6000602082019050610de06000830184610dbc565b92915050565b6000604051905090565b600080fd5b600080fd5b610e0381610db2565b8114610e0e57600080fd5b50565b600081359050610e2081610dfa565b92915050565b600060208284031215610e3c57610e3b610df0565b5b6000610e4a84828501610e11565b91505092915050565b600081519050919050565b600082825260208201905092915050565b60005b83811015610e8d578082015181840152602081019050610e72565b83811115610e9c576000848401525b50505050565b6000601f19601f8301169050919050565b6000610ebe82610e53565b610ec88185610e5e565b9350610ed8818560208601610e6f565b610ee181610ea2565b840191505092915050565b610ef581610db2565b82525050565b60006040830160008301518482036000860152610f188282610eb3565b9150506020830151610f2d6020860182610eec565b508091505092915050565b7f4e487b7100000000000000000000000000000000000000000000000000000000600052602160045260246000fd5b60028110610f7857610f77610f38565b5b50565b6000819050610f8982610f67565b919050565b6000610f9982610f7b565b9050919050565b610fa981610f8e565b82525050565b600060a0830160008301518482036000860152610fcc8282610efb565b9150506020830151610fe16020860182610fa0565b5060408301518482036040860152610ff98282610eb3565b915050606083015161100e6060860182610eec565b5060808301516110216080860182610eec565b508091505092915050565b600060208201905081810360008301526110468184610faf565b905092915050565b600080fd5b600080fd5b7f4e487b7100000000000000000000000000000000000000000000000000000000600052604160045260246000fd5b61109082610ea2565b810181811067ffffffffffffffff821117156110af576110ae611058565b5b80604052505050565b60006110c2610de6565b90506110ce8282611087565b919050565b600067ffffffffffffffff8211156110ee576110ed611058565b5b6110f782610ea2565b9050602081019050919050565b82818337600083830152505050565b6000611126611121846110d3565b6110b8565b90508281526020810184848401111561114257611141611053565b5b61114d848285611104565b509392505050565b600082601f83011261116a5761116961104e565b5b813561117a848260208601611113565b91505092915050565b6000806040838503121561119a57611199610df0565b5b600083013567ffffffffffffffff8111156111b8576111b7610df5565b5b6111c485828601611155565b92505060206111d585828601610e11565b9150509250929050565b600080604083850312156111f6576111f5610df0565b5b600061120485828601610e11565b925050602083013567ffffffffffffffff81111561122557611224610df5565b5b61123185828601611155565b9150509250929050565b600060408301600083015184820360008601526112588282610eb3565b915050602083015161126d6020860182610eec565b508091505092915050565b60006020820190508181036000830152611292818461123b565b905092915050565b600073ffffffffffffffffffffffffffffffffffffffff82169050919050565b60006112c58261129a565b9050919050565b6112d5816112ba565b81146112e057600080fd5b50565b6000813590506112f2816112cc565b92915050565b60006020828403121561130e5761130d610df0565b5b600061131c848285016112e3565b91505092915050565b61132e816112ba565b82525050565b60006020820190506113496000830184611325565b92915050565b7f4e487b7100000000000000000000000000000000000000000000000000000000600052602260045260246000fd5b6000600282049050600182168061139657607f821691505b6020821081036113a9576113a861134f565b5b50919050565b7f4e487b7100000000000000000000000000000000000000000000000000000000600052601160045260246000fd5b60006113e982610db2565b91506113f483610db2565b925082821015611407576114066113af565b5b828203905092915050565b600061141d82610db2565b915061142883610db2565b9250817fffffffffffffffffffffffffffffffffffffffffffffffffffffffffffffffff0483118215151615611461576114606113af565b5b828202905092915050565b600082825260208201905092915050565b600061148882610e53565b611492818561146c565b93506114a2818560208601610e6f565b6114ab81610ea2565b840191505092915050565b600060408201905081810360008301526114d0818561147d565b90506114df6020830184610dbc565b9392505050565b60006114f182610db2565b91507fffffffffffffffffffffffffffffffffffffffffffffffffffffffffffffffff8203611523576115226113af565b5b60018201905091905056fea2646970667358221220e78644807cfbf6ecad605ffdb648c22b838efef10919b4869edaf826b5f5f77d64736f6c634300080d0033",
  "immutableReferences": {},
  "source": "// SPDX-License-Identifier: MIT\npragma solidity >=0.4.22 <0.9.0;\n\ncontract CarParkingSystem {\n    address private _manager;\n    uint256 private _zonesCount;\n    uint256 private _ticketsCount;\n    mapping(uint256 => Zone) private _zones;\n    mapping(uint256 => Ticket) private _tickets;\n\n    enum Payment {\n        PENDING,\n        COMPLETE\n    }\n\n    struct Zone {\n        string label;\n        uint256 weiPerSecond;\n    }\n\n    struct Ticket {\n        Zone zone;\n        Payment payment;\n        string licensePlate;\n        uint256 checkIn;\n        uint256 checkOut;\n    }\n\n    modifier onlyManager() {\n        require(msg.sender == _manager);\n        _;\n    }\n\n    event ParkDetails(string licensePlate, uint256 time);\n\n    constructor(address manager) {\n        _manager = manager;\n    }\n\n    function setZones(string memory label, uint256 weiPerSecond)\n        public\n        onlyManager\n    {\n        Zone memory zone = Zone(label, weiPerSecond);\n        _zonesCount++;\n        _zones[_zonesCount] = zone;\n    }\n\n    function checkIn(uint256 zoneIndex, string memory _licensePlate) public {\n        Ticket memory ticket = Ticket({\n            zone: _zones[zoneIndex],\n            payment: Payment.PENDING,\n            licensePlate: _licensePlate,\n            checkIn: block.timestamp,\n            checkOut: 0\n        });\n\n        _ticketsCount++;\n        _tickets[_ticketsCount] = ticket;\n        emit ParkDetails(ticket.licensePlate, ticket.checkIn);\n    }\n\n    function checkOut(uint256 ticketNr) public payable {\n        Ticket memory ticket = _tickets[ticketNr];\n        require(ticket.payment == Payment.PENDING);\n\n        uint256 timestamp = block.timestamp;\n        uint256 time = timestamp - ticket.checkIn;\n        uint256 payment = time * ticket.zone.weiPerSecond;\n        require(msg.value == payment);\n\n        ticket.checkOut = timestamp;\n        ticket.payment = Payment.COMPLETE;\n        emit ParkDetails(ticket.licensePlate, ticket.checkOut);\n    }\n\n    function getManager() public view onlyManager returns (address) {\n        return _manager;\n    }\n\n    function setManager(address newManager) public onlyManager {\n        _manager = newManager;\n    }\n\n    function getZonesCount() public view onlyManager returns (uint256) {\n        return _zonesCount;\n    }\n\n    function getTicketsCount() public view onlyManager returns (uint256) {\n        return _ticketsCount;\n    }\n\n    function checkZone(uint256 index)\n        public\n        view\n        onlyManager\n        returns (Zone memory)\n    {\n        return _zones[index];\n    }\n\n    function checkTicket(uint256 index)\n        public\n        view\n        onlyManager\n        returns (Ticket memory)\n    {\n        return _tickets[index];\n    }\n}\n",
  "sourcePath": "/home/goran/Desktop/Projects/car-parking-system/contracts/CarParkingSystem.sol",
  "compiler": {
    "name": "solc",
    "version": "0.8.13+commit.abaa5c0e.Emscripten.clang"
  },
  "schemaVersion": "3.4.10",
  "updatedAt": "2022-10-16T03:15:03.937Z",
  "devdoc": {
    "kind": "dev",
    "methods": {},
    "version": 1
  },
  "userdoc": {
    "kind": "user",
    "methods": {},
    "version": 1
  }
}